:020000040800F2
:10000000E805002001010008A3200008BD1E00082B
:10001000A1200008910500089924000800000000B4
:100020000000000000000000000000009B2100080C
:10003000D505000800000000C52000089D2100082B
:100040001B0100081B0100081B0100081B01000820
:100050001B0100081B0100081B0100081B01000810
:100060001B0100081B0100081B0100081B01000800
:100070001B0100081B0100081B0100081B010008F0
:100080001B0100081B0100081B0100081B010008E0
:100090008D2400081B0100081B0100081B0100083B
:1000A0001B0100081B0100081B0100081B010008C0
:1000B0001B010008392200081B0100081B01000871
:1000C0001B0100081B0100081B0100081B010008A0
:1000D000C92000081B0100081B0100081B010008C3
:1000E0001B0100081B0100081B010008DFF80CD0F1
:1000F00000F002FA00480047B9240008E805002093
:100100000648804706480047FEE7FEE7FEE7FEE7B1
:10011000FEE7FEE7FEE7FEE7FEE7FEE7F121000867
:10012000ED000008202A04DB203A21FA02F0002129
:10013000704721FA02F3D040C2F1200291400843F7
:1001400019467047D2B201E000F8012B491EFBD2DC
:1001500070470022F6E710B513460A4604461946D2
:10016000FFF7F0FF204610BD2DE9FE4F804681EAE3
:100170000300C00F0C46009021F0004123F0004521
:10018000B8EB0200A94105D24046214690461C46E4
:100190000B46024623F00040104347D0270DC7F31B
:1001A0000A00C3F30A510290401A019040286BDA0A
:1001B000C3F3130040F4801B0098924620B1002343
:1001C000D2EB030A63EB0B0B01985946C0F14002D6
:1001D000504600F012F906460D4650465946019A1F
:1001E00000F01AF910EB08006141002487EA11526F
:1001F00084EAE7731A4340D0009A62B3019A012A55
:100200004FEA075215DC001B61EB02014FF0004280
:1002100002EA0752CDE90042001C41F58011324646
:100220002B4600F01AF903B0BDE8F08F4046214696
:10023000F9E7001B61EB0201001C41F58013001877
:100240005B412018A2F5001747EB030140EAD57087
:10025000B6196D4111E06D084FEA360645EAC075E2
:100260004FEA0752001B61EB0201001C41F58011AF
:1002700049084FEA30000019514132462B4603B07D
:10028000BDE8F04F00F0DAB80098012240000023EA
:10029000D0EB020263EBE073009821464FEAE07472
:1002A000B8EB000061EB0401E9E783F000435BE792
:1002B00081F0004158E72DE9FE4F81EA030404F084
:1002C000004421F0004100944FF0000B23F0004364
:1002D00050EA01045ED052EA03045BD0C3F30A542F
:1002E000C1F30A552C44A4F2F3340194A0FB025448
:1002F000C1F3130141F48011C3F3130343F48013DA
:1003000001FB024400FB034E840A970A44EA81542D
:1003100047EA8357A4FB076802958D0A05FB07850A
:100320004FEA932C04FB0C542705029D4FEA065814
:1003300047EA1637B5EB08056EEB070C870E920EF1
:1003400047EA811742EA8312A7FB0201B6EB0B01D1
:1003500064EB00042B0D43EA0C335E1844EB1C5095
:10036000DA465146E7FB0201C5F313044FEA0B33AB
:1003700043EA14534FEA0432019C43EA0603A4F112
:100380000C040294009CCDE900B400F066F803B0C0
:10039000BDE8F08F00200146F9E70EB5C10F80EAF5
:1003A000E0700844CA07002140F233438DE80E0094
:1003B0000A460B4600F051F803B000BD70B5C1F31A
:1003C0000A5201F000450024C1F3130140F2FF334B
:1003D00041F480119A4201DA002070BD40F23343AB
:1003E0009A42A2F2334203DC5242FFF79BFE00E046
:1003F00090402C43F1D0404270BD202A04DB203ACB
:1004000000FA02F1002070479140C2F1200320FA67
:1004100003F3194390407047202A06DBCB17203A9C
:1004200041FA02F043EAE07306E041FA02F3D040F9
:10043000C2F12002914008431946704710B5141EBE
:1004400073F1000408DA401C41F1000192185B418D
:100450001A4301D120F0010010BD2DE9F04D924664
:100460009B4611B1B1FA81F202E0B0FA80F220327B
:100470009046FFF7C2FF04460F4640EA0A0041EAF1
:100480000B0153465A46084313D0114653EA010064
:1004900019D0C8F140025046FFF744FE05460E460B
:1004A000504659464246FFF7A8FF084305D00120B1
:1004B00004E020463946BDE8F08D0020054346EAB9
:1004C000E0762C4337430A986305E40AA0EB080062
:1004D0000022FD0A44EA47540A3002D500200146B2
:1004E000E9E7010510196941DDE90845001969418D
:1004F000BDE8F04DA2E70000064C074D06E0E068BD
:1005000040F0010394E8070098471034AC42F6D35A
:10051000FFF7F0FD80250008A025000870B5184CF5
:100520002268801A6060237C0021BBB16161A161F7
:10053000012B12D1124908390860FFF72EFF114A2A
:10054000114BFFF7B8FEC4E9020102460B46D4E99D
:100550000801FFF709FEC4E9080170BDA3690B4E4D
:100560001D18A56163695B1C6361B342F5D395FBFC
:10057000F6F31A442260012222746161A161D9E775
:100580000800002090F174E218E3963E20BF0200BC
:10059000FEE7000000B58BB00020009001900290B3
:1005A000012103900590CDE9060104900E20CDE9CC
:1005B00008106946064800F021F8054800F024FBC1
:1005C000002803D10221024800F006F80BB000BD5C
:1005D000580000207047704790F82020012A07D06B
:1005E000022A05D0416A41F480214162012070470E
:1005F000006842690A4342610020704710B590F8D4
:1006000020300268012B07D0022B05D0416A41F44B
:1006100080214162012010BDD2F8000240F00100AB
:10062000C2F80002087D00F01F0301209840D2F8B4
:100630001C328343C2F81C32CB69B3B9D2F80C32F6
:100640008343C2F80C328C894B6864F31F434C69B6
:1006500002EBC404C4F840320C890B6864F31F43F6
:100660004C6902EBC404C4F84432CB69012B16D1A7
:10067000D2F80C320343C2F80C320C884B6864F396
:100680001F434C6902EBC404C4F840320C89CB68A8
:1006900064F31F434C6902EBC404C4F844328B6911
:1006A000002BD2F804320FD053EA0003C2F8043210
:1006B0000B69002BD2F8143208D00343C2F814326D
:1006C000096A012904D008E08343EFE78343F5E793
:1006D000D2F81C120143C2F81C12D2F8000220F01A
:1006E0000100C2F80002002010BD704730B590F83C
:1006F0002040012C05D0022C03D0416A41F4802116
:100700005DE00468002955D02469A40754D04FF453
:10071000D874056804EB01142D5915F00405956093
:1007200005682D594ED0ED08556005682C59C4F365
:100730004004D4604FF4DA74056804EB01142D59B9
:1007400005F00F05156105682D59C5F3072595615D
:1007500005682C59240C54614FF4DC72046802EBD8
:100760000112A4581C700468A458240A5C70046820
:10077000A458240C9C700468A258120EDA704FF42E
:10078000DE72046802EB0112A4581C710468A458BC
:10079000240A5C710468A458240C9C710468A25853
:1007A000120EDA71006881B1016941F02001016126
:1007B000002030BDE468A8E7416A41F400114162BD
:1007C000012030BD6D0D1560AFE7C16841F020011B
:1007D000C160EDE72DE9F05F054600680024466939
:1007E000D0F804908768D0F80CB0D0F810A0D0F8FA
:1007F0001880F10748D0F90714D001218160B807AB
:1008000003D5284600F02DFA0CE0780702D54FF406
:10081000006407E0380702D54FF4805402E0284610
:1008200000F01EFAF80516D529684FF4807088602C
:10083000B80503D5284600F016FA0CE0780502D575
:1008400044F4005407E0380502D544F4804402E043
:10085000284600F007FAF80316D529684FF48030CF
:100860008860B80303D5284600F0FFF90CE0780350
:1008700002D544F4004407E0380302D544F4803440
:1008800002E0284600F0F0F9300707D55FEACB60B8
:1008900004D52968102044F40074C86070074FF034
:1008A000080707D55FEA0B7004D52868C76028469B
:1008B00000F05AF9B00706D52868C068800702D052
:1008C000284600F053F9700607D55FEACA6004D5E0
:1008D0002968102044F480640861B00607D55FEAF7
:1008E0000A7004D528680761284600F089F9F006E7
:1008F00006D528680069800702D0284600F081F9F3
:10090000B00308D55FEAC96005D5296810204860A2
:10091000284600F077F9F00307D55FEA097004D59F
:1009200028684760284600F0A1F9300446D55FEA00
:10093000497040D5F00504D55FEAC87001D044F095
:100940000104B00504D55FEA887001D544F00204C3
:10095000700504D55FEA487001D544F00404300501
:1009600029D518F0700F26D008F07000402815D057
:1009700006DC102809D020280AD0302816D10AE039
:1009800050280ED0602811D10EE044F008040DE08C
:1009900044F010040AE044F0200407E044F040046E
:1009A00004E044F0800401E044F480742868816924
:1009B00021F070018161296804204860002C05D075
:1009C000686A204368622846FFF78FFEBDE8F09F03
:1009D00070B5040003D094F8200010B104E00120A9
:1009E00070BD204600F082F82068016821F0020105
:1009F000016000F071FA0546052604E000F06CFA8B
:100A0000401B0A2811D8206840688007F6D4206867
:100A1000016841F00101016000F05EFA05460BE05B
:100A200000F05AFA401B0A2806D9606A40F40030E8
:100A3000606284F82060D2E720684068C007EFD089
:100A4000207E0128206801683DD021F080010160EE
:100A5000607E01282068016838D021F040010160E3
:100A6000A07E01282068016833D021F020010160B8
:100A7000E07E0128206801682ED041F0100101605D
:100A8000207F01282068016829D021F00801016039
:100A9000607F01282068016824D021F004010160F2
:100AA000D4E902010843D4E9041211430843616800
:100AB000491E08432168C86100206062012084F853
:100AC0002000002070BD41F08001C0E741F04001EE
:100AD000C5E741F02001CAE721F01001CFE741F05E
:100AE0000801D4E741F00401D9E7000010B586B051
:100AF00000210091019102910391006817498842F9
:100B00002AD11748C16941F00071C161C16901F082
:100B100000710491816941F0040181618069114C87
:100B200000F0040004904FF40060009069462046F5
:100B300000F0EAF8A0140090022001900320039036
:100B40006946204600F0E0F800221146142000F02B
:100B50002DFA142000F01EFA06B010BD006400400B
:100B600000100240000801407047000000B5224A12
:100B7000016889B0914218D107AB6A460021FFF79E
:100B8000B5FD009940F205231C48A1F205229942C7
:100B900025D00CDC111D16D0012918D002291AD03D
:100BA000032902D1C168491CC16009B000BD012AF6
:100BB00019D0022A1BD0A2F58072FF3AF5D1C16983
:100BC000491CC161F1E70168491C0160EDE741681A
:100BD000491C4160E9E78168491C8160E5E70169DA
:100BE000491C0161E1E74169491C4161DDE7816917
:100BF000491C8161D9E700000064004058010020D1
:100C0000704770477047000070B5044690F82000A8
:100C1000012804D0606A40F40020606218E00220DD
:100C200084F820002068016821F00101016000F0D3
:100C300053F905460EE000BF00F04EF9401B0A28AC
:100C400008D9606A40F400306062052084F8200012
:100C5000012070BD20684068C007EDD1606270BDA2
:100C60007047704770477047704770477047000083
:100C700010B590F821100024022903D004218163CB
:100C800001243DE001680A6822F00E020A60016852
:100C90000A6822F001020A601A4A0168914201D1F1
:100CA000012121E0174A1432914201D110211BE0A9
:100CB000144A2832914201D1891515E0114A3C327B
:100CC000914201D189140FE00E4A5032914202D173
:100CD0004FF4803108E00B4A6432914202D14FF464
:100CE000801101E04FF08071064A083A51600121FD
:100CF00080F82110002180F82010416B01B1884755
:100D0000204610BD080002402DE9F84FDFF890A101
:100D100000220AF1040B144601274FF00F090BF1D2
:100D2000040E00BF0B6807FA04F52B40AB4274D1E8
:100D3000DFF870C14E68A6EB0C0866452BD00DDCC1
:100D4000032E34D005DC36B3012E19D0022E2FD15C
:100D50001BE0112E16D0122E2AD119E0B8F5881FEB
:100D600019D006DCB8F5803F15D0B8F5801F1FD12B
:100D700011E0B8F5001F0ED0B8F5041F18D10AE035
:100D8000CA6815E0CA68121D12E0CA6808320FE08E
:100D9000CA680C320CE08A682AB1012A4FF00802B6
:100DA00003D0456104E0042202E0056100E0002276
:100DB000FF2B01D8064601E000F104064FEA840546
:100DC00001D9A5F12005D6F800C009FA05F82CEAEA
:100DD000080C02FA05F54CEA050CC6F800C04D688F
:100DE000ED0057D5304DAE6946F00106AE61AD69F4
:100DF00024F0030605F0010500952C4D06EB050CCB
:100E0000DCF80850A6074FEA167809FA08F6B54349
:100E1000274EB04202D1002610E03BE0254EB04202
:100E200001D101260AE0244EB04201D1022605E09C
:100E3000224EB04201D1032600E0042606FA08F64D
:100E40002E43CCF808604D68DAF80060ED03554693
:100E500001D51E4300E09E432E604D68DBF8006024
:100E6000AD035D4601D51E4300E09E432E604D68F4
:100E7000DEF80060ED02754601D51E4300E09E439A
:100E80002E604D68AD020E4D2E6801D51E4300E068
:100E90009E432E60641C102CFFF444AFBDE8F88F15
:100EA0000004014000001110001002400000014049
:100EB00000080140000C01400010014000140140F6
:100EC0000C040140C2684A40C26070470AB1016127
:100ED00070470904FBE70000014880687047000084
:100EE0004800002002488168027811448160704700
:100EF00048000020074810B5016841F0100101606A
:100F0000032000F073F8002000F006F800F024F849
:100F1000002010BD0020024070B50D4D04464FF476
:100F20007A712878B1FBF0F00A490968B1FBF0F05A
:100F300000F078FD48B9102C07D200222146501E3F
:100F400000F034F800206C6070BD012070BD00001E
:100F500048000020540000200C4808B5816941F089
:100F600001018161816901F001010091C16941F0D4
:100F70008051C161C06900F0805000900448416810
:100F800021F0E06141F00071416008BD00100240B5
:100F90000000014000F01F02012191404009800043
:100FA00000F1E020C0F8001170470000F0B40E4BD3
:100FB0001B680C46C3F30223C3F10705042D00D9B7
:100FC0000425191D072901D2002300E0DB1E01269C
:100FD00006FA05F1491E214099409E40761E1640B2
:100FE0003143F0BC01F05EB80CED00E0064900F0C2
:100FF000070208684FF6FF03184040EA0220034A40
:1010000010430860704700000CED00E00000FA0596
:101010002DE9F047DFF8548105460E46D8F8000068
:1010200000F00700B0420CD2D8F8001021F0070100
:101030003143C8F80010D8F8000000F00700B042B3
:101040006FD128684A4C810712D5400703D56068E4
:1010500040F4E06060602878000703D5606840F4E1
:10106000605060606068A96820F0F000084360602C
:101070002878C00744D06868012816D02168022863
:1010800016D0890700294CDA616821F00301014379
:101090006160FFF721FF6968074641F28830012946
:1010A0000ED00229814618D026E021688903E9E79D
:1010B0008901E7E7FFF710FFC11B494501D918E097
:1010C00081466068C0F381000128F3D118E000BFB9
:1010D000FFF702FFC11B49450BD86068C0F38100D0
:1010E0000228F5D10CE000BFFFF7F6FEC11B494511
:1010F00002D90320BDE8F087606810F00C0FF3D12F
:10110000D8F80010404601F00701B1420BD9016840
:1011100021F0070131430160006800F00700B04290
:1011200001D00120E6E72878400705D56068E96826
:1011300020F4E060084360602878000706D5606806
:10114000296920F4605040EAC100606000F036F880
:101150006168084AC1F30311515CC8400649086040
:101160000020FFF7D9FE0020C4E700000020024065
:10117000001002406825000854000020044805497A
:1011800000684968044AC1F30221515CC8407047B5
:10119000540000200010024078250008044805494A
:1011A00000684968044AC1F3C221515CC8407047D5
:1011B00054000020001002407825000812A185B0DC
:1011C0000FC98DE80F0014A0144A006804905168FC
:1011D000134801F00C03042B10D0082B0ED1C1F3DF
:1011E0008343C9031DF803000AD5516804AAC1F35B
:1011F0004041515C0A4A5043B0FBF1F005B07047E2
:1012000008494843FAE700000203040506070809F5
:101210000A0B0C0D0E0F101001020000001002400E
:1012200000127A0000093D002DE9F84F04460078CD
:10123000B94DC00748D06868C0F38100012807D0C5
:101240006868C0F38100022809D16868C00306D528
:101250002868800338D5606800286FD034E0606863
:10126000B0F5803F0BD010B1B0F5A02F11D0286899
:1012700020F480302860286820F4802002E028686C
:1012800040F480302860606888B1FFF725FE06468C
:1012900009E0286840F480202860F0E7FFF71CFE92
:1012A000801B642875D828688003F7D50CE0FFF709
:1012B00013FE064605E000BFFFF70EFE801B642804
:1012C000F0D828688003F7D42078944E80074FF038
:1012D00001094FF000083BD5686810F00C0F07D0EB
:1012E0006868C0F38100022809D16868C00306D489
:1012F0002868800714D5206901281FD110E02069D3
:10130000B0B1C6F80090FFF7E7FD074605E000BF63
:10131000FFF7E2FDC01B0228C4D828688007F7D574
:101320002868616920F0F80040EAC10028600FE0F9
:10133000C6F80080FFF7D0FD074606E0E9E000BFF1
:10134000FFF7CAFDC01B022823D828688007F7D4FE
:10135000207800072CD57248A169D9B1C0F8009057
:10136000FFF7BAFD074604E0FFF7B6FDC01B0228F1
:101370000FD8686A8007F7D56A484FF4FA510068B9
:10138000B0FBF1F0009000BF0098411E0091FAD22E
:101390000EE080E0C0F80080FFF79EFD074604E005
:1013A000FFF79AFDC01B022875D8686A8007F7D43A
:1013B0002078400760D5E8690027C00008D4E869B4
:1013C00040F08050E861E869012700F0805000900B
:1013D00055480168C90513D40168834641F48071FA
:1013E0000160FFF779FD824606E000BFFFF774FD5C
:1013F000A0EB0A0064284ED8DBF80000C005F5D544
:10140000E06801280AD008B1052813D0286A20F026
:1014100001002862286A20F0040002E0286A40F0F7
:1014200001002862E06841F2883B98B1FFF754FD63
:1014300082460BE0286A40F004002862EEE700BF15
:10144000FFF74AFDA0EB0A0159455AD8286A8007E0
:10145000F6D50CE0FFF740FD824605E0FFF73CFDC6
:10146000A0EB0A0159454CD8286A8007F6D41FB171
:10147000E86920F08050E861E06988B36968C1F3E9
:101480008101022945D00228C6F8608004D0FFF708
:1014900023FD044638E034E0FFF71EFD074604E074
:1014A000FFF71AFDC01B02282BD828688001F7D44B
:1014B000206AB0F5803F05D16868A16820F400304B
:1014C00008436860D4E908010843696821F474118D
:1014D00008436860C6F86090FFF7FEFC044606E02B
:1014E00015E000BFFFF7F8FC001B022809D82868A8
:1014F0008001F7D50BE000BFFFF7EEFC001B0228D0
:1015000002D90320BDE8F88F28688001F4D40020B8
:10151000F8E70120F6E70000001002400000424218
:1015200080044242540000200070004070470000D8
:1015300038B504460068426881684B0605D4CB077D
:1015400003D0530601D5216C04E08B0707D51306A1
:1015500005D5616C01B02046BDE83040084711F068
:10156000600F3FD093063DD54B060AD594F8513015
:10157000032B34D0636D43F004036365C368836851
:101580000093890609D5616D41F0010161658168AB
:101590000091016821F040010160606D002821D0B8
:1015A0002068416821F0E0014160012084F8510089
:1015B000900718D02068416821F0030141600C4D6C
:1015C000E06C18B14563E06CFFF752FBA06C00289B
:1015D00008D04563A06CBDE83840FFF749BBC1683F
:1015E0008068009038BD2046FFF7A0FF38BD00009E
:1015F000F520000870B5040005D00025A56294F818
:10160000510010B104E0012070BD204600F034F814
:10161000022084F851002068016821F04001016037
:10162000D4E901010843D4E9031211430843616975
:101630000843218B01F400710843E1690843216AE2
:101640000843A16A084321680860A069042101EAEF
:101650001040616A0843216848602168E06A0861B7
:101660002068C16921F40061C1616565012084F8C9
:101670005100002070BD000030B585B000240094FA
:101680000194029403940068194988422DD11948A5
:10169000C16941F48041C161C16901F48041049193
:1016A000816941F0080181618069134D00F00800F3
:1016B00004904FF4204000900220019003200390FA
:1016C00069462846FFF720FB4FF48040CDE900042F
:1016D000694628460294FFF717FB00221146242092
:1016E000FFF764FC2420FFF755FC05B030BD000077
:1016F0000038004000100240000C01402DE9F84F76
:10170000044640680026984617460D464FF00409E7
:10171000B0F5827F01D1A06890B194F85000012803
:1017200019D04FF0010B84F850B0FFF7D5FB0090B3
:1017300094F851004FF0000A01280ED002267FE0F5
:1017400084F8519013460A462046CDF8008000F0F8
:101750007DF8BDE8F88F0220FBE7002D6FD0002F49
:101760006DD084F85190C4F854A0A563A787E7878B
:10177000C4F830A0A4F834A0A4F836A0C4F840A05F
:10178000C4F844A0A0684FF40047B84204D12068D0
:10179000016821F48041016020680168490603D492
:1017A000016841F040010160E068B8B133E02068B1
:1017B0008168C90706D0007B05F8010BE08F401E49
:1017C000E0870BE0B8F1000F23D0B8F1FF3F05D060
:1017D000FFF782FB0099411A41451AD2E08F002899
:1017E000E5D11BE020688168C90706D0C06825F8EC
:1017F000020BE08F401EE0870DE0B8F1000F08D02B
:10180000B8F1FF3F07D0FFF767FB0099411A414548
:1018100001D3032614E0E08F0028E3D16068B0F51F
:10182000827F0AD1A068B84202D0B0F5806F04D19F
:101830002068016821F040010160606D00B101265F
:1018400084F851B084F850A0304682E72DE9F84F73
:10185000044690F8500000260A9F9A4693460D468B
:101860004FF0010801280ED0012084F85000FFF746
:1018700033FB814694F85100616801280CD0B1F522
:10188000827F07D102E00220BDE8F88FA16809B984
:10189000042801D00226BDE055B1BBF1000F07D0EE
:1018A000BAF1000F04D094F85100012802D004E0EE
:1018B0000126AFE0052084F8510000206065C4F8DF
:1018C00038B0A4F83EA0A4F83CA02563A4F836A044
:1018D000A4F834A02064606420680168490603D439
:1018E000016841F040010160E068B0F5006F606898
:1018F00004D0E8B3E08E01283BD06AE010B1E08E5E
:1019000001282ED1216835F8020BC860E08E401EF8
:10191000E08626E0B8F1000F0DD0E08E58B12068C7
:101920008168890707D535F8021BC160E08E401E2B
:10193000E0864FF00008E08F58B120688168C90741
:1019400007D0C0682BF8020BE08F401EE0874FF0F5
:101950000108781C05D0FFF7BFFAA0EB0900B842D8
:1019600046D2E08E0028D5D1E08F0028D2D136E0D3
:10197000FFE7216815F8010B0873E08E401EE08632
:1019800027E000BFB8F1000F0DD0E08E58B12068FD
:101990008168890707D515F8011B0173E08E401E89
:1019A000E0864FF00008E08F58B120688168C907D1
:1019B00007D0C0680BF8010BE08F401EE0874FF0A6
:1019C0000108781C05D0FFF787FAA0EB0900B842A0
:1019D0000ED2E08E0028D5D1E08F0028D2D13B4630
:1019E000012202212046CDF8009000F08BFB08B1C7
:1019F00003260FE04A463946204600F06BFB18B13B
:101A000001262020606505E0A06818B92068C1683B
:101A100080680090012084F85100002084F8500074
:101A2000304631E710B5401EB0F1807F01D3012070
:101A300010BD4FF0E02460610F21601700F032FB11
:101A40000020A06107202061002010BD7047704772
:101A500030B590F83C20012A20D0012280F83C20AB
:101A6000022380F83D3003685C6824F070045C60F9
:101A700003685C680D682C435C6003689C6824F014
:101A800080049C6003689C6849680C439C6080F8F3
:101A90003D20002180F83C10084630BD022030BDBA
:101AA00010B5040003D094F83D0010B107E0012008
:101AB00010BD002084F83C00204600F00DF8022004
:101AC00084F83D00211D206800F0BCFB012084F853
:101AD0003D00002010BD000008B500680B49884299
:101AE00012D10B48C16941F00201C161C0690022F5
:101AF00000F00200009011461D20FFF757FABDE8E4
:101B000008401D20FFF746BA08BD00000004004051
:101B1000001002400168CA6842F00102CA60006811
:101B2000016841F0010101600020704770B5044672
:101B300090F83C00012817D0012584F83C50022081
:101B400084F83D002068826822F0770222F47F4208
:101B500082600868502837D00DDC202859D005DC79
:101B600088B3102841D151E0022070BD302853D0F5
:101B700040283AD13FE060282ED070280BD0B0F535
:101B8000805F03D0B0F5005F2FD110E0206881683E
:101B900021F0070115E0CB68D1E90121206800F0B0
:101BA00087FB2168886840F0770088601DE0CB687B
:101BB000D1E90121206800F07BFB2068816841F4B5
:101BC0008041816011E01EE0CA684968206800F029
:101BD00081FB5021206806E0CA684968206800F04F
:101BE0008AFB6021206800F06DFB84F83D500020E6
:101BF00084F83C0070BDCA684968206800F06AFB40
:101C000040212068EFE700212068ECE710212068E0
:101C1000E9E720212068E6E730212068E3E7704704
:101C200070B50446006801694FF00005C943890793
:101C300015D4C168C943890711D4E91E0161012087
:101C40002077206880698007204602D0FFF7E7FFF1
:101C500004E000F098F8204600F096F82577206818
:101C60000169C943490717D4C168C943490713D457
:101C70006FF004010161022020772068806910F470
:101C8000407F204602D0FFF7CAFF04E000F07BF857
:101C9000204600F079F8257720680169C9430907D3
:101CA00016D4C168C943090712D46FF00801016155
:101CB000042020772068C0698007204602D0FFF703
:101CC000AEFF04E000F05FF8204600F05DF82577F5
:101CD00020680169C943C90617D4C168C943C90648
:101CE00013D46FF010010161082020772068C069CB
:101CF00010F4407F204602D0FFF791FF04E000F08F
:101D000042F8204600F040F8257720680169C94371
:101D1000C90708D1C168C943C90704D1891E016137
:101D2000204600F033F820680169C943090609D448
:101D3000C168C943090605D46FF0800101612046DE
:101D4000FFF784FE20680169C943490609D4C168C8
:101D5000C943490605D46FF040010161204600F0F7
:101D600043F820680169C94389060BD4C168C94397
:101D7000890607D46FF0200101612046BDE870405C
:101D8000FFF765BE70BD70477047000070B512491F
:101D90000068096888421ED1104C4FF47A7160685F
:101DA000401CB0FBF1F2606001FB120040B90C4D29
:101DB00040212846FFF786F880212846FFF782F861
:101DC00008496068884206D900F0A6FB2080BDE87B
:101DD0007040FEF7A3BB70BDD8000020400000207B
:101DE000000C0140F0490200704770B5040004D0B7
:101DF00094F83900002510B106E0012070BD84F888
:101E00003850204600F022F8242084F83900206859
:101E1000C16821F40051C160204600F07FFA2068BB
:101E2000016921F4904101612068416921F02A0192
:101E300041612068C16841F40051C160E563202020
:101E400084F8390084F83A00002070BD30B585B0C0
:101E50000024009401940294039400681449884279
:101E600024D11448816941F480418161816901F480
:101E700080410491816941F00401816180690E4DC6
:101E800000F0040004904FF40070009002200190D4
:101E90000320039069462846FEF736FF2815CDE952
:101EA0000004694628460294FEF72EFF05B030BDB7
:101EB000003801400010024000080140FEE7000029
:101EC0000F4810B50D4901600621416000214FF413
:101ED00000328160C0E90312D20042610176012222
:101EE00042768176C17601774177FEF771FD002851
:101EF00003D0BDE81040FEF76EBB10BD006400408B
:101F000058000020F0B585B00025294800950195BE
:101F100002950395816941F010018161816901F0A9
:101F200010010491816941F020018161816901F012
:101F300020010491816941F004018161816901F00E
:101F400004010491816941F0080181618069194FA0
:101F500000F008004FF486560490002231463846BF
:101F6000FEF7B4FF4FF460400324CDE90004694656
:101F70001148FEF7C9FE48F2FF10CDE9000469469A
:101F80000E48FEF7C1FE40F63F70CDE900046946F9
:101F90003846FEF7B9FE01200096CDE90105022082
:101FA000039069463846FEF7AFFE05B0F0BD00006D
:101FB00000100240000C01400010014000080140E8
:101FC0000F4810B50D4901604FF482714160002146
:101FD0008160C1604FF400720161C0E90512C16106
:101FE0000162416281620A21C162FFF703FB00289E
:101FF00003D0BDE81040FEF7EEBA10BD0038004037
:102000008000002010B586B000241648009401948A
:102010000294039404941249059401604721C0E995
:1020200001140921C0E903148461FFF739FD08B1E7
:10203000FEF7D1FA4FF48050009069460948FFF747
:1020400075FD08B1FEF7C7FA049404A90548059484
:10205000FFF7FEFC002801D0FEF7BDFA06B010BD68
:1020600000040040D80000200C4810B50A49016067
:102070004FF4E1314160002181600C22C160C0E970
:1020800004128161C161FFF7B0FE002803D0BDE8F2
:102090001040FEF7A0BA10BD003801401801002022
:1020A000FEE770470907090E002806DA00F00F0066
:1020B00000F1E02080F8141D704700F1E02080F866
:1020C00000147047704700000148FFF731BA000064
:1020D0008000002038B50B46009204460022802183
:1020E00000F010F8002804D0606D40F0200060651A
:1020F000032038BD10B5406A0021C187C186FFF7B3
:1021000015FA10BD2DE9F0411D4617460E4604464E
:10211000DDF8188035E0681C33D02DB1FEF7DCFE09
:10212000A0EB0800A8422CD32068416821F0E00110
:1021300041606068B0F5827F0BD1A068B0F5004FB8
:1021400002D0B0F5806F04D12068016821F0400111
:102150000160A06AB0F5005F0AD1206801684DF601
:10216000FF72114001602068016841F40051016074
:10217000012084F85100002084F850000320BDE8BD
:10218000F0812068806836EA000004D00020B84260
:10219000C1D10020F3E70120F9E77047FEF7A2BEA6
:1021A00030B58FB028216846FDF7D3FF14210AA867
:1021B000FDF7CFFF01210804CDE9001000240294AF
:1021C00002250491CDE907504FF4E01009906846CC
:1021D000FFF72AF80F20CDE90A056802CDE90C4087
:1021E00002210AA80E94FEF713FF0FB030BD0000C5
:1021F0000D48016841F00101016041680B4A11403E
:10220000416001680A4A11400160016821F480219F
:102210000160416821F4FE0141604FF41F018160BB
:102220000449C00308607047001002400000FFF836
:10223000FFFFF6FE08ED00E00148FFF7F1BC0000EB
:10224000D8000020F0B50268164B174C174D4FF020
:102250008047984205D0B84203D0A04201D0A8429E
:1022600003D122F070064A683243984205D0B84242
:1022700003D0A04201D0A84203D122F44074CA681E
:10228000224322F080044A69224302608A68C262C3
:102290000A688262984201D10969016301214161A2
:1022A000F0BD0000002C0140000400400008004088
:1022B00010B5846842EA032224F47F440A4322438F
:1022C000826010BD826822F070020A4342F007016A
:1022D0008160704710B5036A046A24F00104046247
:1022E000846924F0F00444EA021423F00A020A4349
:1022F0008461026210BD10B5036A23F0100303620B
:102300008369046A23F4704343EA023224F0A00391
:1023100043EA01118261016210BD00002DE9F04124
:10232000044600680169E26821F4405111430161EB
:102330002169A0680843616908432168CA6841F2BD
:102340000C639A430243CA6020684169A26921F480
:102350004071114341614C4920686425322688420E
:102360003CD1FEF71BFF00EBC00101EB00106168E0
:102370008900B0FBF1F7FEF711FF00EBC00101EBA4
:1023800000106168B0468900B0FBF1F0B0FBF5F0D9
:102390006FF01801484307EB800106EB0110B0FB1A
:1023A000F5F000F0F006FEF7F9FE00EBC00101EBDE
:1023B000001061688900B0FBF1F0B0FBF5F006EBAE
:1023C0000016FEF7EBFE00EBC00101EB00106168A8
:1023D0008900B0FBF1F7FEF7E1FE3BE0FEF7CEFE31
:1023E00000EBC00101EB001061688900B0FBF1F760
:1023F000FEF7C4FE00EBC00101EB00106168B046BF
:102400008900B0FBF1F0B0FBF5F06FF01801484324
:1024100007EB800106EB0110B0FBF5F000F0F006D1
:10242000FEF7ACFE00EBC00101EB00106168890013
:10243000B0FBF1F0B0FBF5F006EB0016FEF79EFEE8
:1024400000EBC00101EB001061688900B0FBF1F7FF
:10245000FEF794FE00EBC00101EB001061688900FB
:10246000B0FBF1F0B0FBF5F06FF01801484307EB5B
:10247000800108EB0110B0FBF5F0216800F00F00BF
:1024800030448860BDE8F081003801400148FEF723
:10249000A1B9000058000020FEE702E008C8121FA2
:1024A00008C1002AFAD170477047002001E001C13D
:1024B000121F002AFBD17047FEF71CFDFFF770FECC
:1024C000FFF720FDFFF77CFDFFF79CFDFFF7CCFD3C
:1024D000FFF7F6FC0B48FFF71DFB0B4C6070FEF797
:1024E00059F80B4920700025D1E90801074E094B26
:1024F0002A46FDF7E0FEFDF761FF3168221D82E804
:102500002300FBE7D800002030000020440000201A
:10251000080000200000594038B50020104D024648
:102520004FF48054009021462846FEF7CFFC092343
:10253000032269460B48FFF7E1F8012221462846AD
:10254000FEF7C4FC9DF800009DF80110000440EA6D
:1025500001209DF802100843C0F38F0038BD000031
:10256000000C01408000002000000000000000007E
:102570000102030406070809000000000102030429
:10258000A025000800000020580000009A24000840
:10259000F82500085800002090050000AA24000833
:1025A0000000000000000000FF7F000000000000AD
:1025B000000000000000000000000000000000001B
:1025C000000000000000000000000000000000000B
:1025D00000000000000000000000000000000000FB
:1025E00000000000000000000100000010000000DA
:0825F0000000000000A24A04F3
:04000005080000ED02
:00000001FF
